:100000000C94FE000C9422010C9422010C94220109
:100010000C9422010C9422010C9422010C942201D4
:100020000C9422010C9422010C9422010C942201C4
:100030000C9422010C9422010C9422010C942201B4
:100040000C9422010C9422010C9422010C942201A4
:100050000C9422010C9422010C9422010C94220194
:100060000C9422010C9422010C9422010C94220184
:100070000C9422010C9422010C9422010C94220174
:100080000C9422010C9422010C9422010C94220164
:100090000C9422010C9422010C9422010C94220154
:1000A0000C9422010C9422010C9422010C94220144
:1000B0000C9422010C9422010C9422010C94220134
:1000C0000C9422010C9422010C9422010C94220124
:1000D0000C9422010C9422010C9422010C94220114
:1000E0000C9422010C9422010C9422010C94220104
:1000F0000C9422010C9422010C9422010C942201F4
:100100000C9422010C9422010C9422010C942201E3
:100110000C9422010C9422010C9422010C942201D3
:100120000C9422010C9422010C9422010C942201C3
:100130000C9422010C9422010C9422010C942201B3
:100140000C9422010C9422010C9422010C942201A3
:100150000C9422010C9422010C9422010C94220193
:100160000C9422010C9422010C9422010C94220183
:100170000C9422010C9422010C9422010C94220173
:100180000C9422010C9422010C9422010C94220163
:100190000C9422010C9422010C9422010C94220153
:1001A0000C9422010C9422010C9422010C94220143
:1001B0000C9422010C9422010C9422010C94220133
:1001C0000C9422010C9422010C9422010C94220123
:1001D0000C9422010C9422010C9422010C94220113
:1001E0000C9422010C9422010C9422010C94220103
:1001F0000C9422010C9422010C94220111241FBEA4
:10020000CFEFCDBFDFE2DEBF18BE19BE1ABE1BBEE8
:1002100010E2A0E0B0E2E6E9F3E000E00BBF02C0CC
:1002200007900D92A830B107D9F71BBE20E2A8E0D5
:10023000B0E201C01D92A930B207E1F70E944F0160
:100240000C94C9010C9400008BE08093550088ED5C
:1002500084BF81E1809350008091510084FFFCCFE6
:1002600088ED84BF84E0809340001092410008959F
:10027000A0E6B6E080E811968C931197E0E8F6E0EE
:10028000818387E457968C93878B1092B4000895EE
:100290008FEF9FEF80932608909327080895CF93C0
:1002A000DF931F92CDB7DEB7F8940E9424010E941D
:1002B00038018FE18093E10681E0809321068091EF
:1002C0000320909104200F9624E0969587952A9517
:1002D000E1F78093082021E0F1E061E0E3E0A2E0B3
:1002E000609325066093260680E070E090910520DB
:1002F000891708F03EC0409100205091012030E065
:1003000090910620391798F5909108209983000064
:10031000909102209093B4000000000000000000C3
:100320009981915099839111F2CF000000001092B1
:10033000B400772331F090910C0895FFFCCF109218
:1003400000088093E40640932A0850932B081092EB
:1003500020081092210890910C08906290930C084C
:10036000F0930008440F551F3F5F71E0C9CF8F5FC6
:10037000BDCF80910C0885FFFCCF109200082111A1
:1003800004C0A093022021E0ABCFE093022020E044
:06039000A7CFF894FFCF97
:080396000300024001200B00EE
:00000001FF
