:100000000C94FE000C9422010C9422010C94220109
:100010000C9422010C9422010C9422010C942201D4
:100020000C9422010C9422010C9422010C942201C4
:100030000C9422010C9422010C9422010C942201B4
:100040000C9422010C9422010C9422010C942201A4
:100050000C9422010C9422010C9422010C94220194
:100060000C9422010C9422010C9422010C94220184
:100070000C9422010C9422010C9422010C94220174
:100080000C9422010C9422010C9422010C94220164
:100090000C9422010C9422010C9422010C94220154
:1000A0000C9422010C9422010C9422010C94220144
:1000B0000C9422010C9422010C9422010C94220134
:1000C0000C9422010C9422010C9422010C94220124
:1000D0000C9422010C9422010C9422010C94220114
:1000E0000C9422010C9422010C9422010C94220104
:1000F0000C9422010C9422010C9422010C942201F4
:100100000C9422010C9422010C9422010C942201E3
:100110000C9422010C9422010C9422010C942201D3
:100120000C9422010C9422010C9422010C942201C3
:100130000C9422010C9422010C9422010C942201B3
:100140000C9422010C9422010C9422010C942201A3
:100150000C9422010C9422010C9422010C94220193
:100160000C9422010C9422010C9422010C94220183
:100170000C9422010C9422010C9422010C94220173
:100180000C9422010C9422010C9422010C94220163
:100190000C9422010C9422010C9422010C94220153
:1001A0000C9422010C9422010C9422010C94220143
:1001B0000C9422010C9422010C9422010C94220133
:1001C0000C9422010C9422010C9422010C94220123
:1001D0000C9422010C9422010C9422010C94220113
:1001E0000C9422010C9422010C9422010C94220103
:1001F0000C9422010C9422010C94220111241FBEA4
:10020000CFEFCDBFDFE2DEBF18BE19BE1ABE1BBEE8
:1002100010E2A0E0B0E2E0ECF3E000E00BBF02C0CF
:1002200007900D92A630B107D9F71BBE20E2A6E0D9
:10023000B0E201C01D92A730B207E1F70E9453015E
:100240000C94DE010C9400008AE08093550088ED48
:1002500084BF81E1809350008091510084FFFCCFE6
:1002600088ED84BF84E0809340001092410008959F
:10027000A0E6B6E080E811968C931197E0E8F6E0EE
:10028000818387E457968C93878B1092B4000895EE
:100290008FEF9FEF809326089093270882E080934A
:1002A000810608950895CF93DF931F92CDB7DEB7EF
:1002B000F8940E9424010E9438010E9448018FE1B5
:1002C0008093E10681E080932106809381068091EE
:1002D0000220909103200F9644E0969587954A95C9
:1002E000E1F78093062081E091E051E050932506EC
:1002F00050932606811102C0F3E001C0F2E020E035
:10030000E0E030910420231708F045C06091002000
:100310007091012040E030910520431708F039C06A
:100320003091062039830000F093B40000000000F3
:10033000000000003981315039833111F4CF0000C1
:1003400000001092B400EE2331F030910C0835FF1C
:10035000FCCF109200082093E406909385060000DD
:100360000000000000009093860660932A087093B6
:100370002B08109220081092210830910C0830624E
:1003800030930C0890930008660F771F4F5FE1E0F1
:10039000C2CF2F5FB6CF20910C0825FFFCCF109263
:1003A0000008882329F02091280721FFFCCF04C0F2
:1003B0002091280722FFFCCF892798CFF894FFCF00
:0603C00003004001200BC8
:00000001FF
