:100000000C94FE000C941A010C941A010C941A0121
:100010000C941A010C941A010C941A010C941A01F4
:100020000C941A010C941A010C941A010C941A01E4
:100030000C941A010C941A010C941A010C941A01D4
:100040000C941A010C941A010C941A010C941A01C4
:100050000C941A010C941A010C941A010C941A01B4
:100060000C941A010C941A010C941A010C941A01A4
:100070000C941A010C941A010C941A010C941A0194
:100080000C941A010C941A010C941A010C941A0184
:100090000C941A010C941A010C941A010C941A0174
:1000A0000C941A010C941A010C941A010C941A0164
:1000B0000C941A010C941A010C941A010C941A0154
:1000C0000C941A010C941A010C941A010C941A0144
:1000D0000C941A010C941A010C941A010C941A0134
:1000E0000C941A010C941A010C941A010C941A0124
:1000F0000C941A010C941A010C941A010C941A0114
:100100000C941A010C941A010C941A010C941A0103
:100110000C941A010C941A010C941A010C941A01F3
:100120000C941A010C941A010C941A010C941A01E3
:100130000C941A010C941A010C941A010C941A01D3
:100140000C941A010C941A010C941A010C941A01C3
:100150000C941A010C941A010C941A010C941A01B3
:100160000C941A010C941A010C941A010C941A01A3
:100170000C941A010C941A010C941A010C941A0193
:100180000C941A010C941A010C941A010C941A0183
:100190000C941A010C941A010C941A010C941A0173
:1001A0000C941A010C941A010C941A010C941A0163
:1001B0000C941A010C941A010C941A010C941A0153
:1001C0000C941A010C941A010C941A010C941A0143
:1001D0000C941A010C941A010C941A010C941A0133
:1001E0000C941A010C941A010C941A010C941A0123
:1001F0000C941A010C941A010C941A0111241FBEBC
:10020000CFEFCDBFDFE2DEBF18BE19BE1ABE1BBEE8
:1002100010E2A0E0B0E2EEE8F3E000E00BBF02C0C5
:1002200007900D92A630B107D9F71BBE0E949D0121
:100230000C94C5010C9400008AE08093550088ED71
:1002400084BF81E1809350008091510084FFFCCFF6
:1002500088ED84BF84E080934000109241000895AF
:10026000A0E6B6E080E811968C931197E0E8F6E0FE
:10027000818387E457968C93878B1092B4000895FE
:10028000E0EBF0E0848300000000000000000000CC
:10029000000000000000000000000000000000005E
:1002A000000014820895CF93DF931F92CDB7DEB77D
:1002B000209101203091022094E0369527959A955F
:1002C000E1F7215029838093B40000000000000072
:1002D00000000000000000008981815089838111A5
:1002E000F4CF0000000000000000000000001092A9
:1002F000B4000F90DF91CF910895209101203091AB
:1003000002202131310510F40C9440010C9453016A
:10031000809100200E947D011092E4069091E406F5
:1003200080910320981730F48091E4068F5F8093CA
:10033000E406F4CF089508950895F8940E941C01EE
:100340000E94300181E0809321069CE3E0E4F8E024
:10035000DF011D929A95E9F72FE13EE4209376089C
:100360003093770880934008C1E0C0932506C0937E
:1003700026060E94880180914C08816080934C0879
:0E03800080914C0880FFFCCFF0CFF894FFCFA7
:06038E00021000200B002C
:00000001FF
